{
  "contracts/FundMe.sol": {
    "FundMe": {
      "abi": [
        {
          "inputs": [
            {
              "internalType": "address",
              "name": "_priceFeed",
              "type": "address"
            }
          ],
          "stateMutability": "nonpayable",
          "type": "constructor"
        },
        {
          "inputs": [],
          "name": "FundMe__NotOwner",
          "type": "error"
        },
        {
          "anonymous": false,
          "inputs": [
            {
              "indexed": true,
              "internalType": "address",
              "name": "from",
              "type": "address"
            },
            {
              "indexed": false,
              "internalType": "uint256",
              "name": "amount",
              "type": "uint256"
            }
          ],
          "name": "Funded",
          "type": "event"
        },
        {
          "inputs": [],
          "name": "MINIMUM_USD",
          "outputs": [
            {
              "internalType": "uint256",
              "name": "",
              "type": "uint256"
            }
          ],
          "stateMutability": "view",
          "type": "function"
        },
        {
          "inputs": [],
          "name": "fund",
          "outputs": [],
          "stateMutability": "payable",
          "type": "function"
        },
        {
          "inputs": [
            {
              "internalType": "address",
              "name": "",
              "type": "address"
            }
          ],
          "name": "s_addressToAmountFunded",
          "outputs": [
            {
              "internalType": "uint256",
              "name": "",
              "type": "uint256"
            }
          ],
          "stateMutability": "view",
          "type": "function"
        },
        {
          "inputs": [
            {
              "internalType": "uint256",
              "name": "",
              "type": "uint256"
            }
          ],
          "name": "s_funders",
          "outputs": [
            {
              "internalType": "address",
              "name": "",
              "type": "address"
            }
          ],
          "stateMutability": "view",
          "type": "function"
        },
        {
          "inputs": [],
          "name": "s_priceFeed",
          "outputs": [
            {
              "internalType": "contract AggregatorV3Interface",
              "name": "",
              "type": "address"
            }
          ],
          "stateMutability": "view",
          "type": "function"
        },
        {
          "inputs": [],
          "name": "withdraw",
          "outputs": [],
          "stateMutability": "nonpayable",
          "type": "function"
        }
      ],
      "evm": {
        "bytecode": {
          "linkReferences": {},
          "object": "60c060405234801561001057600080fd5b50604051610da4380380610da483398181016040528101906100329190610103565b3373ffffffffffffffffffffffffffffffffffffffff1660a08173ffffffffffffffffffffffffffffffffffffffff16815250508073ffffffffffffffffffffffffffffffffffffffff1660808173ffffffffffffffffffffffffffffffffffffffff168152505050610130565b600080fd5b600073ffffffffffffffffffffffffffffffffffffffff82169050919050565b60006100d0826100a5565b9050919050565b6100e0816100c5565b81146100eb57600080fd5b50565b6000815190506100fd816100d7565b92915050565b600060208284031215610119576101186100a0565b5b6000610127848285016100ee565b91505092915050565b60805160a051610c4161016360003960008181610189015261031601526000818161014d01526104060152610c416000f3fe6080604052600436106100555760003560e01c80630ec3b0271461005a5780631bf6132d146100855780633ccfd60b146100c257806354861af7146100d95780636b69a59214610116578063b60d428814610141575b600080fd5b34801561006657600080fd5b5061006f61014b565b60405161007c9190610723565b60405180910390f35b34801561009157600080fd5b506100ac60048036038101906100a79190610781565b61016f565b6040516100b991906107c7565b60405180910390f35b3480156100ce57600080fd5b506100d7610187565b005b3480156100e557600080fd5b5061010060048036038101906100fb919061080e565b6103ab565b60405161010d919061084a565b60405180910390f35b34801561012257600080fd5b5061012b6103ea565b60405161013891906107c7565b60405180910390f35b6101496103f7565b005b7f000000000000000000000000000000000000000000000000000000000000000081565b60016020528060005260406000206000915090505481565b7f000000000000000000000000000000000000000000000000000000000000000073ffffffffffffffffffffffffffffffffffffffff163373ffffffffffffffffffffffffffffffffffffffff161461020c576040517f579610db00000000000000000000000000000000000000000000000000000000815260040160405180910390fd5b60005b6000805490508110156102b157600080828154811061023157610230610865565b5b9060005260206000200160009054906101000a900473ffffffffffffffffffffffffffffffffffffffff1690506000600160008373ffffffffffffffffffffffffffffffffffffffff1673ffffffffffffffffffffffffffffffffffffffff1681526020019081526020016000208190555050808060010191505061020f565b50600067ffffffffffffffff8111156102cd576102cc610894565b5b6040519080825280602002602001820160405280156102fb5781602001602082028036833780820191505090505b50600090805190602001906103119291906105fd565b5060007f000000000000000000000000000000000000000000000000000000000000000073ffffffffffffffffffffffffffffffffffffffff1647604051610358906108f4565b60006040518083038185875af1925050503d8060008114610395576040519150601f19603f3d011682016040523d82523d6000602084013e61039a565b606091505b50509050806103a857600080fd5b50565b600081815481106103bb57600080fd5b906000526020600020016000915054906101000a900473ffffffffffffffffffffffffffffffffffffffff1681565b6802b5e3af16b188000081565b6802b5e3af16b18800006104347f00000000000000000000000000000000000000000000000000000000000000003461053090919063ffffffff16565b1015610475576040517f08c379a000000000000000000000000000000000000000000000000000000000815260040161046c90610966565b60405180910390fd5b34600160003373ffffffffffffffffffffffffffffffffffffffff1673ffffffffffffffffffffffffffffffffffffffff16815260200190815260200160002060008282546104c491906109b5565b925050819055506000339080600181540180825580915050600190039060005260206000200160009091909190916101000a81548173ffffffffffffffffffffffffffffffffffffffff021916908373ffffffffffffffffffffffffffffffffffffffff160217905550565b60008061053c8361056c565b90506000670de0b6b3a7640000858361055591906109e9565b61055f9190610a5a565b9050809250505092915050565b6000808273ffffffffffffffffffffffffffffffffffffffff1663feaf968c6040518163ffffffff1660e01b815260040160a060405180830381865afa1580156105ba573d6000803e3d6000fd5b505050506040513d601f19601f820116820180604052508101906105de9190610b18565b5050509150506402540be400816105f59190610b93565b915050919050565b828054828255906000526020600020908101928215610676579160200282015b828111156106755782518260006101000a81548173ffffffffffffffffffffffffffffffffffffffff021916908373ffffffffffffffffffffffffffffffffffffffff1602179055509160200191906001019061061d565b5b5090506106839190610687565b5090565b5b808211156106a0576000816000905550600101610688565b5090565b600073ffffffffffffffffffffffffffffffffffffffff82169050919050565b6000819050919050565b60006106e96106e46106df846106a4565b6106c4565b6106a4565b9050919050565b60006106fb826106ce565b9050919050565b600061070d826106f0565b9050919050565b61071d81610702565b82525050565b60006020820190506107386000830184610714565b92915050565b600080fd5b600061074e826106a4565b9050919050565b61075e81610743565b811461076957600080fd5b50565b60008135905061077b81610755565b92915050565b6000602082840312156107975761079661073e565b5b60006107a58482850161076c565b91505092915050565b6000819050919050565b6107c1816107ae565b82525050565b60006020820190506107dc60008301846107b8565b92915050565b6107eb816107ae565b81146107f657600080fd5b50565b600081359050610808816107e2565b92915050565b6000602082840312156108245761082361073e565b5b6000610832848285016107f9565b91505092915050565b61084481610743565b82525050565b600060208201905061085f600083018461083b565b92915050565b7f4e487b7100000000000000000000000000000000000000000000000000000000600052603260045260246000fd5b7f4e487b7100000000000000000000000000000000000000000000000000000000600052604160045260246000fd5b600081905092915050565b50565b60006108de6000836108c3565b91506108e9826108ce565b600082019050919050565b60006108ff826108d1565b9150819050919050565b600082825260208201905092915050565b7f596f75206e65656420746f207370656e64206d6f726520455448210000000000600082015250565b6000610950601b83610909565b915061095b8261091a565b602082019050919050565b6000602082019050818103600083015261097f81610943565b9050919050565b7f4e487b7100000000000000000000000000000000000000000000000000000000600052601160045260246000fd5b60006109c0826107ae565b91506109cb836107ae565b92508282019050808211156109e3576109e2610986565b5b92915050565b60006109f4826107ae565b91506109ff836107ae565b9250828202610a0d816107ae565b91508282048414831517610a2457610a23610986565b5b5092915050565b7f4e487b7100000000000000000000000000000000000000000000000000000000600052601260045260246000fd5b6000610a65826107ae565b9150610a70836107ae565b925082610a8057610a7f610a2b565b5b828204905092915050565b600069ffffffffffffffffffff82169050919050565b610aaa81610a8b565b8114610ab557600080fd5b50565b600081519050610ac781610aa1565b92915050565b6000819050919050565b610ae081610acd565b8114610aeb57600080fd5b50565b600081519050610afd81610ad7565b92915050565b600081519050610b12816107e2565b92915050565b600080600080600060a08688031215610b3457610b3361073e565b5b6000610b4288828901610ab8565b9550506020610b5388828901610aee565b9450506040610b6488828901610b03565b9350506060610b7588828901610b03565b9250506080610b8688828901610ab8565b9150509295509295909350565b6000610b9e82610acd565b9150610ba983610acd565b9250828202610bb781610acd565b91507f80000000000000000000000000000000000000000000000000000000000000008414600084121615610bef57610bee610986565b5b8282058414831517610c0457610c03610986565b5b509291505056fea2646970667358221220505bd503d19e5cbbfec3308085be27da6554ec7de351b3ea91b613a5b54b063664736f6c63430008180033",
          "opcodes": "PUSH1 0xC0 PUSH1 0x40 MSTORE CALLVALUE DUP1 ISZERO PUSH2 0x10 JUMPI PUSH1 0x0 DUP1 REVERT JUMPDEST POP PUSH1 0x40 MLOAD PUSH2 0xDA4 CODESIZE SUB DUP1 PUSH2 0xDA4 DUP4 CODECOPY DUP2 DUP2 ADD PUSH1 0x40 MSTORE DUP2 ADD SWAP1 PUSH2 0x32 SWAP2 SWAP1 PUSH2 0x103 JUMP JUMPDEST CALLER PUSH20 0xFFFFFFFFFFFFFFFFFFFFFFFFFFFFFFFFFFFFFFFF AND PUSH1 0xA0 DUP2 PUSH20 0xFFFFFFFFFFFFFFFFFFFFFFFFFFFFFFFFFFFFFFFF AND DUP2 MSTORE POP POP DUP1 PUSH20 0xFFFFFFFFFFFFFFFFFFFFFFFFFFFFFFFFFFFFFFFF AND PUSH1 0x80 DUP2 PUSH20 0xFFFFFFFFFFFFFFFFFFFFFFFFFFFFFFFFFFFFFFFF AND DUP2 MSTORE POP POP POP PUSH2 0x130 JUMP JUMPDEST PUSH1 0x0 DUP1 REVERT JUMPDEST PUSH1 0x0 PUSH20 0xFFFFFFFFFFFFFFFFFFFFFFFFFFFFFFFFFFFFFFFF DUP3 AND SWAP1 POP SWAP2 SWAP1 POP JUMP JUMPDEST PUSH1 0x0 PUSH2 0xD0 DUP3 PUSH2 0xA5 JUMP JUMPDEST SWAP1 POP SWAP2 SWAP1 POP JUMP JUMPDEST PUSH2 0xE0 DUP2 PUSH2 0xC5 JUMP JUMPDEST DUP2 EQ PUSH2 0xEB JUMPI PUSH1 0x0 DUP1 REVERT JUMPDEST POP JUMP JUMPDEST PUSH1 0x0 DUP2 MLOAD SWAP1 POP PUSH2 0xFD DUP2 PUSH2 0xD7 JUMP JUMPDEST SWAP3 SWAP2 POP POP JUMP JUMPDEST PUSH1 0x0 PUSH1 0x20 DUP3 DUP5 SUB SLT ISZERO PUSH2 0x119 JUMPI PUSH2 0x118 PUSH2 0xA0 JUMP JUMPDEST JUMPDEST PUSH1 0x0 PUSH2 0x127 DUP5 DUP3 DUP6 ADD PUSH2 0xEE JUMP JUMPDEST SWAP2 POP POP SWAP3 SWAP2 POP POP JUMP JUMPDEST PUSH1 0x80 MLOAD PUSH1 0xA0 MLOAD PUSH2 0xC41 PUSH2 0x163 PUSH1 0x0 CODECOPY PUSH1 0x0 DUP2 DUP2 PUSH2 0x189 ADD MSTORE PUSH2 0x316 ADD MSTORE PUSH1 0x0 DUP2 DUP2 PUSH2 0x14D ADD MSTORE PUSH2 0x406 ADD MSTORE PUSH2 0xC41 PUSH1 0x0 RETURN INVALID PUSH1 0x80 PUSH1 0x40 MSTORE PUSH1 0x4 CALLDATASIZE LT PUSH2 0x55 JUMPI PUSH1 0x0 CALLDATALOAD PUSH1 0xE0 SHR DUP1 PUSH4 0xEC3B027 EQ PUSH2 0x5A JUMPI DUP1 PUSH4 0x1BF6132D EQ PUSH2 0x85 JUMPI DUP1 PUSH4 0x3CCFD60B EQ PUSH2 0xC2 JUMPI DUP1 PUSH4 0x54861AF7 EQ PUSH2 0xD9 JUMPI DUP1 PUSH4 0x6B69A592 EQ PUSH2 0x116 JUMPI DUP1 PUSH4 0xB60D4288 EQ PUSH2 0x141 JUMPI JUMPDEST PUSH1 0x0 DUP1 REVERT JUMPDEST CALLVALUE DUP1 ISZERO PUSH2 0x66 JUMPI PUSH1 0x0 DUP1 REVERT JUMPDEST POP PUSH2 0x6F PUSH2 0x14B JUMP JUMPDEST PUSH1 0x40 MLOAD PUSH2 0x7C SWAP2 SWAP1 PUSH2 0x723 JUMP JUMPDEST PUSH1 0x40 MLOAD DUP1 SWAP2 SUB SWAP1 RETURN JUMPDEST CALLVALUE DUP1 ISZERO PUSH2 0x91 JUMPI PUSH1 0x0 DUP1 REVERT JUMPDEST POP PUSH2 0xAC PUSH1 0x4 DUP1 CALLDATASIZE SUB DUP2 ADD SWAP1 PUSH2 0xA7 SWAP2 SWAP1 PUSH2 0x781 JUMP JUMPDEST PUSH2 0x16F JUMP JUMPDEST PUSH1 0x40 MLOAD PUSH2 0xB9 SWAP2 SWAP1 PUSH2 0x7C7 JUMP JUMPDEST PUSH1 0x40 MLOAD DUP1 SWAP2 SUB SWAP1 RETURN JUMPDEST CALLVALUE DUP1 ISZERO PUSH2 0xCE JUMPI PUSH1 0x0 DUP1 REVERT JUMPDEST POP PUSH2 0xD7 PUSH2 0x187 JUMP JUMPDEST STOP JUMPDEST CALLVALUE DUP1 ISZERO PUSH2 0xE5 JUMPI PUSH1 0x0 DUP1 REVERT JUMPDEST POP PUSH2 0x100 PUSH1 0x4 DUP1 CALLDATASIZE SUB DUP2 ADD SWAP1 PUSH2 0xFB SWAP2 SWAP1 PUSH2 0x80E JUMP JUMPDEST PUSH2 0x3AB JUMP JUMPDEST PUSH1 0x40 MLOAD PUSH2 0x10D SWAP2 SWAP1 PUSH2 0x84A JUMP JUMPDEST PUSH1 0x40 MLOAD DUP1 SWAP2 SUB SWAP1 RETURN JUMPDEST CALLVALUE DUP1 ISZERO PUSH2 0x122 JUMPI PUSH1 0x0 DUP1 REVERT JUMPDEST POP PUSH2 0x12B PUSH2 0x3EA JUMP JUMPDEST PUSH1 0x40 MLOAD PUSH2 0x138 SWAP2 SWAP1 PUSH2 0x7C7 JUMP JUMPDEST PUSH1 0x40 MLOAD DUP1 SWAP2 SUB SWAP1 RETURN JUMPDEST PUSH2 0x149 PUSH2 0x3F7 JUMP JUMPDEST STOP JUMPDEST PUSH32 0x0 DUP2 JUMP JUMPDEST PUSH1 0x1 PUSH1 0x20 MSTORE DUP1 PUSH1 0x0 MSTORE PUSH1 0x40 PUSH1 0x0 KECCAK256 PUSH1 0x0 SWAP2 POP SWAP1 POP SLOAD DUP2 JUMP JUMPDEST PUSH32 0x0 PUSH20 0xFFFFFFFFFFFFFFFFFFFFFFFFFFFFFFFFFFFFFFFF AND CALLER PUSH20 0xFFFFFFFFFFFFFFFFFFFFFFFFFFFFFFFFFFFFFFFF AND EQ PUSH2 0x20C JUMPI PUSH1 0x40 MLOAD PUSH32 0x579610DB00000000000000000000000000000000000000000000000000000000 DUP2 MSTORE PUSH1 0x4 ADD PUSH1 0x40 MLOAD DUP1 SWAP2 SUB SWAP1 REVERT JUMPDEST PUSH1 0x0 JUMPDEST PUSH1 0x0 DUP1 SLOAD SWAP1 POP DUP2 LT ISZERO PUSH2 0x2B1 JUMPI PUSH1 0x0 DUP1 DUP3 DUP2 SLOAD DUP2 LT PUSH2 0x231 JUMPI PUSH2 0x230 PUSH2 0x865 JUMP JUMPDEST JUMPDEST SWAP1 PUSH1 0x0 MSTORE PUSH1 0x20 PUSH1 0x0 KECCAK256 ADD PUSH1 0x0 SWAP1 SLOAD SWAP1 PUSH2 0x100 EXP SWAP1 DIV PUSH20 0xFFFFFFFFFFFFFFFFFFFFFFFFFFFFFFFFFFFFFFFF AND SWAP1 POP PUSH1 0x0 PUSH1 0x1 PUSH1 0x0 DUP4 PUSH20 0xFFFFFFFFFFFFFFFFFFFFFFFFFFFFFFFFFFFFFFFF AND PUSH20 0xFFFFFFFFFFFFFFFFFFFFFFFFFFFFFFFFFFFFFFFF AND DUP2 MSTORE PUSH1 0x20 ADD SWAP1 DUP2 MSTORE PUSH1 0x20 ADD PUSH1 0x0 KECCAK256 DUP2 SWAP1 SSTORE POP POP DUP1 DUP1 PUSH1 0x1 ADD SWAP2 POP POP PUSH2 0x20F JUMP JUMPDEST POP PUSH1 0x0 PUSH8 0xFFFFFFFFFFFFFFFF DUP2 GT ISZERO PUSH2 0x2CD JUMPI PUSH2 0x2CC PUSH2 0x894 JUMP JUMPDEST JUMPDEST PUSH1 0x40 MLOAD SWAP1 DUP1 DUP3 MSTORE DUP1 PUSH1 0x20 MUL PUSH1 0x20 ADD DUP3 ADD PUSH1 0x40 MSTORE DUP1 ISZERO PUSH2 0x2FB JUMPI DUP2 PUSH1 0x20 ADD PUSH1 0x20 DUP3 MUL DUP1 CALLDATASIZE DUP4 CALLDATACOPY DUP1 DUP3 ADD SWAP2 POP POP SWAP1 POP JUMPDEST POP PUSH1 0x0 SWAP1 DUP1 MLOAD SWAP1 PUSH1 0x20 ADD SWAP1 PUSH2 0x311 SWAP3 SWAP2 SWAP1 PUSH2 0x5FD JUMP JUMPDEST POP PUSH1 0x0 PUSH32 0x0 PUSH20 0xFFFFFFFFFFFFFFFFFFFFFFFFFFFFFFFFFFFFFFFF AND SELFBALANCE PUSH1 0x40 MLOAD PUSH2 0x358 SWAP1 PUSH2 0x8F4 JUMP JUMPDEST PUSH1 0x0 PUSH1 0x40 MLOAD DUP1 DUP4 SUB DUP2 DUP6 DUP8 GAS CALL SWAP3 POP POP POP RETURNDATASIZE DUP1 PUSH1 0x0 DUP2 EQ PUSH2 0x395 JUMPI PUSH1 0x40 MLOAD SWAP2 POP PUSH1 0x1F NOT PUSH1 0x3F RETURNDATASIZE ADD AND DUP3 ADD PUSH1 0x40 MSTORE RETURNDATASIZE DUP3 MSTORE RETURNDATASIZE PUSH1 0x0 PUSH1 0x20 DUP5 ADD RETURNDATACOPY PUSH2 0x39A JUMP JUMPDEST PUSH1 0x60 SWAP2 POP JUMPDEST POP POP SWAP1 POP DUP1 PUSH2 0x3A8 JUMPI PUSH1 0x0 DUP1 REVERT JUMPDEST POP JUMP JUMPDEST PUSH1 0x0 DUP2 DUP2 SLOAD DUP2 LT PUSH2 0x3BB JUMPI PUSH1 0x0 DUP1 REVERT JUMPDEST SWAP1 PUSH1 0x0 MSTORE PUSH1 0x20 PUSH1 0x0 KECCAK256 ADD PUSH1 0x0 SWAP2 POP SLOAD SWAP1 PUSH2 0x100 EXP SWAP1 DIV PUSH20 0xFFFFFFFFFFFFFFFFFFFFFFFFFFFFFFFFFFFFFFFF AND DUP2 JUMP JUMPDEST PUSH9 0x2B5E3AF16B1880000 DUP2 JUMP JUMPDEST PUSH9 0x2B5E3AF16B1880000 PUSH2 0x434 PUSH32 0x0 CALLVALUE PUSH2 0x530 SWAP1 SWAP2 SWAP1 PUSH4 0xFFFFFFFF AND JUMP JUMPDEST LT ISZERO PUSH2 0x475 JUMPI PUSH1 0x40 MLOAD PUSH32 0x8C379A000000000000000000000000000000000000000000000000000000000 DUP2 MSTORE PUSH1 0x4 ADD PUSH2 0x46C SWAP1 PUSH2 0x966 JUMP JUMPDEST PUSH1 0x40 MLOAD DUP1 SWAP2 SUB SWAP1 REVERT JUMPDEST CALLVALUE PUSH1 0x1 PUSH1 0x0 CALLER PUSH20 0xFFFFFFFFFFFFFFFFFFFFFFFFFFFFFFFFFFFFFFFF AND PUSH20 0xFFFFFFFFFFFFFFFFFFFFFFFFFFFFFFFFFFFFFFFF AND DUP2 MSTORE PUSH1 0x20 ADD SWAP1 DUP2 MSTORE PUSH1 0x20 ADD PUSH1 0x0 KECCAK256 PUSH1 0x0 DUP3 DUP3 SLOAD PUSH2 0x4C4 SWAP2 SWAP1 PUSH2 0x9B5 JUMP JUMPDEST SWAP3 POP POP DUP2 SWAP1 SSTORE POP PUSH1 0x0 CALLER SWAP1 DUP1 PUSH1 0x1 DUP2 SLOAD ADD DUP1 DUP3 SSTORE DUP1 SWAP2 POP POP PUSH1 0x1 SWAP1 SUB SWAP1 PUSH1 0x0 MSTORE PUSH1 0x20 PUSH1 0x0 KECCAK256 ADD PUSH1 0x0 SWAP1 SWAP2 SWAP1 SWAP2 SWAP1 SWAP2 PUSH2 0x100 EXP DUP2 SLOAD DUP2 PUSH20 0xFFFFFFFFFFFFFFFFFFFFFFFFFFFFFFFFFFFFFFFF MUL NOT AND SWAP1 DUP4 PUSH20 0xFFFFFFFFFFFFFFFFFFFFFFFFFFFFFFFFFFFFFFFF AND MUL OR SWAP1 SSTORE POP JUMP JUMPDEST PUSH1 0x0 DUP1 PUSH2 0x53C DUP4 PUSH2 0x56C JUMP JUMPDEST SWAP1 POP PUSH1 0x0 PUSH8 0xDE0B6B3A7640000 DUP6 DUP4 PUSH2 0x555 SWAP2 SWAP1 PUSH2 0x9E9 JUMP JUMPDEST PUSH2 0x55F SWAP2 SWAP1 PUSH2 0xA5A JUMP JUMPDEST SWAP1 POP DUP1 SWAP3 POP POP POP SWAP3 SWAP2 POP POP JUMP JUMPDEST PUSH1 0x0 DUP1 DUP3 PUSH20 0xFFFFFFFFFFFFFFFFFFFFFFFFFFFFFFFFFFFFFFFF AND PUSH4 0xFEAF968C PUSH1 0x40 MLOAD DUP2 PUSH4 0xFFFFFFFF AND PUSH1 0xE0 SHL DUP2 MSTORE PUSH1 0x4 ADD PUSH1 0xA0 PUSH1 0x40 MLOAD DUP1 DUP4 SUB DUP2 DUP7 GAS STATICCALL ISZERO DUP1 ISZERO PUSH2 0x5BA JUMPI RETURNDATASIZE PUSH1 0x0 DUP1 RETURNDATACOPY RETURNDATASIZE PUSH1 0x0 REVERT JUMPDEST POP POP POP POP PUSH1 0x40 MLOAD RETURNDATASIZE PUSH1 0x1F NOT PUSH1 0x1F DUP3 ADD AND DUP3 ADD DUP1 PUSH1 0x40 MSTORE POP DUP2 ADD SWAP1 PUSH2 0x5DE SWAP2 SWAP1 PUSH2 0xB18 JUMP JUMPDEST POP POP POP SWAP2 POP POP PUSH5 0x2540BE400 DUP2 PUSH2 0x5F5 SWAP2 SWAP1 PUSH2 0xB93 JUMP JUMPDEST SWAP2 POP POP SWAP2 SWAP1 POP JUMP JUMPDEST DUP3 DUP1 SLOAD DUP3 DUP3 SSTORE SWAP1 PUSH1 0x0 MSTORE PUSH1 0x20 PUSH1 0x0 KECCAK256 SWAP1 DUP2 ADD SWAP3 DUP3 ISZERO PUSH2 0x676 JUMPI SWAP2 PUSH1 0x20 MUL DUP3 ADD JUMPDEST DUP3 DUP2 GT ISZERO PUSH2 0x675 JUMPI DUP3 MLOAD DUP3 PUSH1 0x0 PUSH2 0x100 EXP DUP2 SLOAD DUP2 PUSH20 0xFFFFFFFFFFFFFFFFFFFFFFFFFFFFFFFFFFFFFFFF MUL NOT AND SWAP1 DUP4 PUSH20 0xFFFFFFFFFFFFFFFFFFFFFFFFFFFFFFFFFFFFFFFF AND MUL OR SWAP1 SSTORE POP SWAP2 PUSH1 0x20 ADD SWAP2 SWAP1 PUSH1 0x1 ADD SWAP1 PUSH2 0x61D JUMP JUMPDEST JUMPDEST POP SWAP1 POP PUSH2 0x683 SWAP2 SWAP1 PUSH2 0x687 JUMP JUMPDEST POP SWAP1 JUMP JUMPDEST JUMPDEST DUP1 DUP3 GT ISZERO PUSH2 0x6A0 JUMPI PUSH1 0x0 DUP2 PUSH1 0x0 SWAP1 SSTORE POP PUSH1 0x1 ADD PUSH2 0x688 JUMP JUMPDEST POP SWAP1 JUMP JUMPDEST PUSH1 0x0 PUSH20 0xFFFFFFFFFFFFFFFFFFFFFFFFFFFFFFFFFFFFFFFF DUP3 AND SWAP1 POP SWAP2 SWAP1 POP JUMP JUMPDEST PUSH1 0x0 DUP2 SWAP1 POP SWAP2 SWAP1 POP JUMP JUMPDEST PUSH1 0x0 PUSH2 0x6E9 PUSH2 0x6E4 PUSH2 0x6DF DUP5 PUSH2 0x6A4 JUMP JUMPDEST PUSH2 0x6C4 JUMP JUMPDEST PUSH2 0x6A4 JUMP JUMPDEST SWAP1 POP SWAP2 SWAP1 POP JUMP JUMPDEST PUSH1 0x0 PUSH2 0x6FB DUP3 PUSH2 0x6CE JUMP JUMPDEST SWAP1 POP SWAP2 SWAP1 POP JUMP JUMPDEST PUSH1 0x0 PUSH2 0x70D DUP3 PUSH2 0x6F0 JUMP JUMPDEST SWAP1 POP SWAP2 SWAP1 POP JUMP JUMPDEST PUSH2 0x71D DUP2 PUSH2 0x702 JUMP JUMPDEST DUP3 MSTORE POP POP JUMP JUMPDEST PUSH1 0x0 PUSH1 0x20 DUP3 ADD SWAP1 POP PUSH2 0x738 PUSH1 0x0 DUP4 ADD DUP5 PUSH2 0x714 JUMP JUMPDEST SWAP3 SWAP2 POP POP JUMP JUMPDEST PUSH1 0x0 DUP1 REVERT JUMPDEST PUSH1 0x0 PUSH2 0x74E DUP3 PUSH2 0x6A4 JUMP JUMPDEST SWAP1 POP SWAP2 SWAP1 POP JUMP JUMPDEST PUSH2 0x75E DUP2 PUSH2 0x743 JUMP JUMPDEST DUP2 EQ PUSH2 0x769 JUMPI PUSH1 0x0 DUP1 REVERT JUMPDEST POP JUMP JUMPDEST PUSH1 0x0 DUP2 CALLDATALOAD SWAP1 POP PUSH2 0x77B DUP2 PUSH2 0x755 JUMP JUMPDEST SWAP3 SWAP2 POP POP JUMP JUMPDEST PUSH1 0x0 PUSH1 0x20 DUP3 DUP5 SUB SLT ISZERO PUSH2 0x797 JUMPI PUSH2 0x796 PUSH2 0x73E JUMP JUMPDEST JUMPDEST PUSH1 0x0 PUSH2 0x7A5 DUP5 DUP3 DUP6 ADD PUSH2 0x76C JUMP JUMPDEST SWAP2 POP POP SWAP3 SWAP2 POP POP JUMP JUMPDEST PUSH1 0x0 DUP2 SWAP1 POP SWAP2 SWAP1 POP JUMP JUMPDEST PUSH2 0x7C1 DUP2 PUSH2 0x7AE JUMP JUMPDEST DUP3 MSTORE POP POP JUMP JUMPDEST PUSH1 0x0 PUSH1 0x20 DUP3 ADD SWAP1 POP PUSH2 0x7DC PUSH1 0x0 DUP4 ADD DUP5 PUSH2 0x7B8 JUMP JUMPDEST SWAP3 SWAP2 POP POP JUMP JUMPDEST PUSH2 0x7EB DUP2 PUSH2 0x7AE JUMP JUMPDEST DUP2 EQ PUSH2 0x7F6 JUMPI PUSH1 0x0 DUP1 REVERT JUMPDEST POP JUMP JUMPDEST PUSH1 0x0 DUP2 CALLDATALOAD SWAP1 POP PUSH2 0x808 DUP2 PUSH2 0x7E2 JUMP JUMPDEST SWAP3 SWAP2 POP POP JUMP JUMPDEST PUSH1 0x0 PUSH1 0x20 DUP3 DUP5 SUB SLT ISZERO PUSH2 0x824 JUMPI PUSH2 0x823 PUSH2 0x73E JUMP JUMPDEST JUMPDEST PUSH1 0x0 PUSH2 0x832 DUP5 DUP3 DUP6 ADD PUSH2 0x7F9 JUMP JUMPDEST SWAP2 POP POP SWAP3 SWAP2 POP POP JUMP JUMPDEST PUSH2 0x844 DUP2 PUSH2 0x743 JUMP JUMPDEST DUP3 MSTORE POP POP JUMP JUMPDEST PUSH1 0x0 PUSH1 0x20 DUP3 ADD SWAP1 POP PUSH2 0x85F PUSH1 0x0 DUP4 ADD DUP5 PUSH2 0x83B JUMP JUMPDEST SWAP3 SWAP2 POP POP JUMP JUMPDEST PUSH32 0x4E487B7100000000000000000000000000000000000000000000000000000000 PUSH1 0x0 MSTORE PUSH1 0x32 PUSH1 0x4 MSTORE PUSH1 0x24 PUSH1 0x0 REVERT JUMPDEST PUSH32 0x4E487B7100000000000000000000000000000000000000000000000000000000 PUSH1 0x0 MSTORE PUSH1 0x41 PUSH1 0x4 MSTORE PUSH1 0x24 PUSH1 0x0 REVERT JUMPDEST PUSH1 0x0 DUP2 SWAP1 POP SWAP3 SWAP2 POP POP JUMP JUMPDEST POP JUMP JUMPDEST PUSH1 0x0 PUSH2 0x8DE PUSH1 0x0 DUP4 PUSH2 0x8C3 JUMP JUMPDEST SWAP2 POP PUSH2 0x8E9 DUP3 PUSH2 0x8CE JUMP JUMPDEST PUSH1 0x0 DUP3 ADD SWAP1 POP SWAP2 SWAP1 POP JUMP JUMPDEST PUSH1 0x0 PUSH2 0x8FF DUP3 PUSH2 0x8D1 JUMP JUMPDEST SWAP2 POP DUP2 SWAP1 POP SWAP2 SWAP1 POP JUMP JUMPDEST PUSH1 0x0 DUP3 DUP3 MSTORE PUSH1 0x20 DUP3 ADD SWAP1 POP SWAP3 SWAP2 POP POP JUMP JUMPDEST PUSH32 0x596F75206E65656420746F207370656E64206D6F726520455448210000000000 PUSH1 0x0 DUP3 ADD MSTORE POP JUMP JUMPDEST PUSH1 0x0 PUSH2 0x950 PUSH1 0x1B DUP4 PUSH2 0x909 JUMP JUMPDEST SWAP2 POP PUSH2 0x95B DUP3 PUSH2 0x91A JUMP JUMPDEST PUSH1 0x20 DUP3 ADD SWAP1 POP SWAP2 SWAP1 POP JUMP JUMPDEST PUSH1 0x0 PUSH1 0x20 DUP3 ADD SWAP1 POP DUP2 DUP2 SUB PUSH1 0x0 DUP4 ADD MSTORE PUSH2 0x97F DUP2 PUSH2 0x943 JUMP JUMPDEST SWAP1 POP SWAP2 SWAP1 POP JUMP JUMPDEST PUSH32 0x4E487B7100000000000000000000000000000000000000000000000000000000 PUSH1 0x0 MSTORE PUSH1 0x11 PUSH1 0x4 MSTORE PUSH1 0x24 PUSH1 0x0 REVERT JUMPDEST PUSH1 0x0 PUSH2 0x9C0 DUP3 PUSH2 0x7AE JUMP JUMPDEST SWAP2 POP PUSH2 0x9CB DUP4 PUSH2 0x7AE JUMP JUMPDEST SWAP3 POP DUP3 DUP3 ADD SWAP1 POP DUP1 DUP3 GT ISZERO PUSH2 0x9E3 JUMPI PUSH2 0x9E2 PUSH2 0x986 JUMP JUMPDEST JUMPDEST SWAP3 SWAP2 POP POP JUMP JUMPDEST PUSH1 0x0 PUSH2 0x9F4 DUP3 PUSH2 0x7AE JUMP JUMPDEST SWAP2 POP PUSH2 0x9FF DUP4 PUSH2 0x7AE JUMP JUMPDEST SWAP3 POP DUP3 DUP3 MUL PUSH2 0xA0D DUP2 PUSH2 0x7AE JUMP JUMPDEST SWAP2 POP DUP3 DUP3 DIV DUP5 EQ DUP4 ISZERO OR PUSH2 0xA24 JUMPI PUSH2 0xA23 PUSH2 0x986 JUMP JUMPDEST JUMPDEST POP SWAP3 SWAP2 POP POP JUMP JUMPDEST PUSH32 0x4E487B7100000000000000000000000000000000000000000000000000000000 PUSH1 0x0 MSTORE PUSH1 0x12 PUSH1 0x4 MSTORE PUSH1 0x24 PUSH1 0x0 REVERT JUMPDEST PUSH1 0x0 PUSH2 0xA65 DUP3 PUSH2 0x7AE JUMP JUMPDEST SWAP2 POP PUSH2 0xA70 DUP4 PUSH2 0x7AE JUMP JUMPDEST SWAP3 POP DUP3 PUSH2 0xA80 JUMPI PUSH2 0xA7F PUSH2 0xA2B JUMP JUMPDEST JUMPDEST DUP3 DUP3 DIV SWAP1 POP SWAP3 SWAP2 POP POP JUMP JUMPDEST PUSH1 0x0 PUSH10 0xFFFFFFFFFFFFFFFFFFFF DUP3 AND SWAP1 POP SWAP2 SWAP1 POP JUMP JUMPDEST PUSH2 0xAAA DUP2 PUSH2 0xA8B JUMP JUMPDEST DUP2 EQ PUSH2 0xAB5 JUMPI PUSH1 0x0 DUP1 REVERT JUMPDEST POP JUMP JUMPDEST PUSH1 0x0 DUP2 MLOAD SWAP1 POP PUSH2 0xAC7 DUP2 PUSH2 0xAA1 JUMP JUMPDEST SWAP3 SWAP2 POP POP JUMP JUMPDEST PUSH1 0x0 DUP2 SWAP1 POP SWAP2 SWAP1 POP JUMP JUMPDEST PUSH2 0xAE0 DUP2 PUSH2 0xACD JUMP JUMPDEST DUP2 EQ PUSH2 0xAEB JUMPI PUSH1 0x0 DUP1 REVERT JUMPDEST POP JUMP JUMPDEST PUSH1 0x0 DUP2 MLOAD SWAP1 POP PUSH2 0xAFD DUP2 PUSH2 0xAD7 JUMP JUMPDEST SWAP3 SWAP2 POP POP JUMP JUMPDEST PUSH1 0x0 DUP2 MLOAD SWAP1 POP PUSH2 0xB12 DUP2 PUSH2 0x7E2 JUMP JUMPDEST SWAP3 SWAP2 POP POP JUMP JUMPDEST PUSH1 0x0 DUP1 PUSH1 0x0 DUP1 PUSH1 0x0 PUSH1 0xA0 DUP7 DUP9 SUB SLT ISZERO PUSH2 0xB34 JUMPI PUSH2 0xB33 PUSH2 0x73E JUMP JUMPDEST JUMPDEST PUSH1 0x0 PUSH2 0xB42 DUP9 DUP3 DUP10 ADD PUSH2 0xAB8 JUMP JUMPDEST SWAP6 POP POP PUSH1 0x20 PUSH2 0xB53 DUP9 DUP3 DUP10 ADD PUSH2 0xAEE JUMP JUMPDEST SWAP5 POP POP PUSH1 0x40 PUSH2 0xB64 DUP9 DUP3 DUP10 ADD PUSH2 0xB03 JUMP JUMPDEST SWAP4 POP POP PUSH1 0x60 PUSH2 0xB75 DUP9 DUP3 DUP10 ADD PUSH2 0xB03 JUMP JUMPDEST SWAP3 POP POP PUSH1 0x80 PUSH2 0xB86 DUP9 DUP3 DUP10 ADD PUSH2 0xAB8 JUMP JUMPDEST SWAP2 POP POP SWAP3 SWAP6 POP SWAP3 SWAP6 SWAP1 SWAP4 POP JUMP JUMPDEST PUSH1 0x0 PUSH2 0xB9E DUP3 PUSH2 0xACD JUMP JUMPDEST SWAP2 POP PUSH2 0xBA9 DUP4 PUSH2 0xACD JUMP JUMPDEST SWAP3 POP DUP3 DUP3 MUL PUSH2 0xBB7 DUP2 PUSH2 0xACD JUMP JUMPDEST SWAP2 POP PUSH32 0x8000000000000000000000000000000000000000000000000000000000000000 DUP5 EQ PUSH1 0x0 DUP5 SLT AND ISZERO PUSH2 0xBEF JUMPI PUSH2 0xBEE PUSH2 0x986 JUMP JUMPDEST JUMPDEST DUP3 DUP3 SDIV DUP5 EQ DUP4 ISZERO OR PUSH2 0xC04 JUMPI PUSH2 0xC03 PUSH2 0x986 JUMP JUMPDEST JUMPDEST POP SWAP3 SWAP2 POP POP JUMP INVALID LOG2 PUSH5 0x6970667358 0x22 SLT KECCAK256 POP JUMPDEST 0xD5 SUB 0xD1 SWAP15 TLOAD 0xBB INVALID 0xC3 ADDRESS DUP1 DUP6 0xBE 0x27 0xDA PUSH6 0x54EC7DE351B3 0xEA SWAP2 0xB6 SGT 0xA5 0xB5 0x4B MOD CALLDATASIZE PUSH5 0x736F6C6343 STOP ADDMOD XOR STOP CALLER "
        },
        "methodIdentifiers": {
          "MINIMUM_USD()": "6b69a592",
          "fund()": "b60d4288",
          "s_addressToAmountFunded(address)": "1bf6132d",
          "s_funders(uint256)": "54861af7",
          "s_priceFeed()": "0ec3b027",
          "withdraw()": "3ccfd60b"
        }
      }
    }
  }
}