{
  "_format": "hh-sol-artifact-1",
  "contractName": "FundMe",
  "sourceName": "contracts/FundMe.sol",
  "abi": [
    {
      "inputs": [
        {
          "internalType": "address",
          "name": "_priceFeed",
          "type": "address"
        }
      ],
      "stateMutability": "nonpayable",
      "type": "constructor"
    },
    {
      "inputs": [],
      "name": "FundMe__NotOwner",
      "type": "error"
    },
    {
      "anonymous": false,
      "inputs": [
        {
          "indexed": true,
          "internalType": "address",
          "name": "from",
          "type": "address"
        },
        {
          "indexed": false,
          "internalType": "uint256",
          "name": "amount",
          "type": "uint256"
        }
      ],
      "name": "Funded",
      "type": "event"
    },
    {
      "inputs": [],
      "name": "MINIMUM_USD",
      "outputs": [
        {
          "internalType": "uint256",
          "name": "",
          "type": "uint256"
        }
      ],
      "stateMutability": "view",
      "type": "function"
    },
    {
      "inputs": [],
      "name": "fund",
      "outputs": [],
      "stateMutability": "payable",
      "type": "function"
    },
    {
      "inputs": [
        {
          "internalType": "address",
          "name": "",
          "type": "address"
        }
      ],
      "name": "s_addressToAmountFunded",
      "outputs": [
        {
          "internalType": "uint256",
          "name": "",
          "type": "uint256"
        }
      ],
      "stateMutability": "view",
      "type": "function"
    },
    {
      "inputs": [
        {
          "internalType": "uint256",
          "name": "",
          "type": "uint256"
        }
      ],
      "name": "s_funders",
      "outputs": [
        {
          "internalType": "address",
          "name": "",
          "type": "address"
        }
      ],
      "stateMutability": "view",
      "type": "function"
    },
    {
      "inputs": [],
      "name": "s_priceFeed",
      "outputs": [
        {
          "internalType": "contract AggregatorV3Interface",
          "name": "",
          "type": "address"
        }
      ],
      "stateMutability": "view",
      "type": "function"
    },
    {
      "inputs": [],
      "name": "withdraw",
      "outputs": [],
      "stateMutability": "nonpayable",
      "type": "function"
    }
  ],
  "bytecode": "0x60c060405234801561001057600080fd5b50604051610da4380380610da483398181016040528101906100329190610103565b3373ffffffffffffffffffffffffffffffffffffffff1660a08173ffffffffffffffffffffffffffffffffffffffff16815250508073ffffffffffffffffffffffffffffffffffffffff1660808173ffffffffffffffffffffffffffffffffffffffff168152505050610130565b600080fd5b600073ffffffffffffffffffffffffffffffffffffffff82169050919050565b60006100d0826100a5565b9050919050565b6100e0816100c5565b81146100eb57600080fd5b50565b6000815190506100fd816100d7565b92915050565b600060208284031215610119576101186100a0565b5b6000610127848285016100ee565b91505092915050565b60805160a051610c4161016360003960008181610189015261031601526000818161014d01526104060152610c416000f3fe6080604052600436106100555760003560e01c80630ec3b0271461005a5780631bf6132d146100855780633ccfd60b146100c257806354861af7146100d95780636b69a59214610116578063b60d428814610141575b600080fd5b34801561006657600080fd5b5061006f61014b565b60405161007c9190610723565b60405180910390f35b34801561009157600080fd5b506100ac60048036038101906100a79190610781565b61016f565b6040516100b991906107c7565b60405180910390f35b3480156100ce57600080fd5b506100d7610187565b005b3480156100e557600080fd5b5061010060048036038101906100fb919061080e565b6103ab565b60405161010d919061084a565b60405180910390f35b34801561012257600080fd5b5061012b6103ea565b60405161013891906107c7565b60405180910390f35b6101496103f7565b005b7f000000000000000000000000000000000000000000000000000000000000000081565b60016020528060005260406000206000915090505481565b7f000000000000000000000000000000000000000000000000000000000000000073ffffffffffffffffffffffffffffffffffffffff163373ffffffffffffffffffffffffffffffffffffffff161461020c576040517f579610db00000000000000000000000000000000000000000000000000000000815260040160405180910390fd5b60005b6000805490508110156102b157600080828154811061023157610230610865565b5b9060005260206000200160009054906101000a900473ffffffffffffffffffffffffffffffffffffffff1690506000600160008373ffffffffffffffffffffffffffffffffffffffff1673ffffffffffffffffffffffffffffffffffffffff1681526020019081526020016000208190555050808060010191505061020f565b50600067ffffffffffffffff8111156102cd576102cc610894565b5b6040519080825280602002602001820160405280156102fb5781602001602082028036833780820191505090505b50600090805190602001906103119291906105fd565b5060007f000000000000000000000000000000000000000000000000000000000000000073ffffffffffffffffffffffffffffffffffffffff1647604051610358906108f4565b60006040518083038185875af1925050503d8060008114610395576040519150601f19603f3d011682016040523d82523d6000602084013e61039a565b606091505b50509050806103a857600080fd5b50565b600081815481106103bb57600080fd5b906000526020600020016000915054906101000a900473ffffffffffffffffffffffffffffffffffffffff1681565b6802b5e3af16b188000081565b6802b5e3af16b18800006104347f00000000000000000000000000000000000000000000000000000000000000003461053090919063ffffffff16565b1015610475576040517f08c379a000000000000000000000000000000000000000000000000000000000815260040161046c90610966565b60405180910390fd5b34600160003373ffffffffffffffffffffffffffffffffffffffff1673ffffffffffffffffffffffffffffffffffffffff16815260200190815260200160002060008282546104c491906109b5565b925050819055506000339080600181540180825580915050600190039060005260206000200160009091909190916101000a81548173ffffffffffffffffffffffffffffffffffffffff021916908373ffffffffffffffffffffffffffffffffffffffff160217905550565b60008061053c8361056c565b90506000670de0b6b3a7640000858361055591906109e9565b61055f9190610a5a565b9050809250505092915050565b6000808273ffffffffffffffffffffffffffffffffffffffff1663feaf968c6040518163ffffffff1660e01b815260040160a060405180830381865afa1580156105ba573d6000803e3d6000fd5b505050506040513d601f19601f820116820180604052508101906105de9190610b18565b5050509150506402540be400816105f59190610b93565b915050919050565b828054828255906000526020600020908101928215610676579160200282015b828111156106755782518260006101000a81548173ffffffffffffffffffffffffffffffffffffffff021916908373ffffffffffffffffffffffffffffffffffffffff1602179055509160200191906001019061061d565b5b5090506106839190610687565b5090565b5b808211156106a0576000816000905550600101610688565b5090565b600073ffffffffffffffffffffffffffffffffffffffff82169050919050565b6000819050919050565b60006106e96106e46106df846106a4565b6106c4565b6106a4565b9050919050565b60006106fb826106ce565b9050919050565b600061070d826106f0565b9050919050565b61071d81610702565b82525050565b60006020820190506107386000830184610714565b92915050565b600080fd5b600061074e826106a4565b9050919050565b61075e81610743565b811461076957600080fd5b50565b60008135905061077b81610755565b92915050565b6000602082840312156107975761079661073e565b5b60006107a58482850161076c565b91505092915050565b6000819050919050565b6107c1816107ae565b82525050565b60006020820190506107dc60008301846107b8565b92915050565b6107eb816107ae565b81146107f657600080fd5b50565b600081359050610808816107e2565b92915050565b6000602082840312156108245761082361073e565b5b6000610832848285016107f9565b91505092915050565b61084481610743565b82525050565b600060208201905061085f600083018461083b565b92915050565b7f4e487b7100000000000000000000000000000000000000000000000000000000600052603260045260246000fd5b7f4e487b7100000000000000000000000000000000000000000000000000000000600052604160045260246000fd5b600081905092915050565b50565b60006108de6000836108c3565b91506108e9826108ce565b600082019050919050565b60006108ff826108d1565b9150819050919050565b600082825260208201905092915050565b7f596f75206e65656420746f207370656e64206d6f726520455448210000000000600082015250565b6000610950601b83610909565b915061095b8261091a565b602082019050919050565b6000602082019050818103600083015261097f81610943565b9050919050565b7f4e487b7100000000000000000000000000000000000000000000000000000000600052601160045260246000fd5b60006109c0826107ae565b91506109cb836107ae565b92508282019050808211156109e3576109e2610986565b5b92915050565b60006109f4826107ae565b91506109ff836107ae565b9250828202610a0d816107ae565b91508282048414831517610a2457610a23610986565b5b5092915050565b7f4e487b7100000000000000000000000000000000000000000000000000000000600052601260045260246000fd5b6000610a65826107ae565b9150610a70836107ae565b925082610a8057610a7f610a2b565b5b828204905092915050565b600069ffffffffffffffffffff82169050919050565b610aaa81610a8b565b8114610ab557600080fd5b50565b600081519050610ac781610aa1565b92915050565b6000819050919050565b610ae081610acd565b8114610aeb57600080fd5b50565b600081519050610afd81610ad7565b92915050565b600081519050610b12816107e2565b92915050565b600080600080600060a08688031215610b3457610b3361073e565b5b6000610b4288828901610ab8565b9550506020610b5388828901610aee565b9450506040610b6488828901610b03565b9350506060610b7588828901610b03565b9250506080610b8688828901610ab8565b9150509295509295909350565b6000610b9e82610acd565b9150610ba983610acd565b9250828202610bb781610acd565b91507f80000000000000000000000000000000000000000000000000000000000000008414600084121615610bef57610bee610986565b5b8282058414831517610c0457610c03610986565b5b509291505056fea2646970667358221220505bd503d19e5cbbfec3308085be27da6554ec7de351b3ea91b613a5b54b063664736f6c63430008180033",
  "linkReferences": {},
  "deployedLinkReferences": {}
}