{
  "_format": "hh-sol-artifact-1",
  "contractName": "FundMe",
  "sourceName": "contracts/FundMe.sol",
  "abi": [
    {
      "inputs": [
        {
          "internalType": "address",
          "name": "_priceFeed",
          "type": "address"
        }
      ],
      "stateMutability": "nonpayable",
      "type": "constructor"
    },
    {
      "inputs": [],
      "name": "FundMe__NotOwner",
      "type": "error"
    },
    {
      "anonymous": false,
      "inputs": [
        {
          "indexed": true,
          "internalType": "address",
          "name": "from",
          "type": "address"
        },
        {
          "indexed": false,
          "internalType": "uint256",
          "name": "amount",
          "type": "uint256"
        }
      ],
      "name": "Funded",
      "type": "event"
    },
    {
      "inputs": [],
      "name": "MINIMUM_USD",
      "outputs": [
        {
          "internalType": "uint256",
          "name": "",
          "type": "uint256"
        }
      ],
      "stateMutability": "view",
      "type": "function"
    },
    {
      "inputs": [],
      "name": "fund",
      "outputs": [],
      "stateMutability": "payable",
      "type": "function"
    },
    {
      "inputs": [
        {
          "internalType": "uint256",
          "name": "",
          "type": "uint256"
        }
      ],
      "name": "funders",
      "outputs": [
        {
          "internalType": "address",
          "name": "",
          "type": "address"
        }
      ],
      "stateMutability": "view",
      "type": "function"
    },
    {
      "inputs": [],
      "name": "withdraw",
      "outputs": [],
      "stateMutability": "nonpayable",
      "type": "function"
    }
  ],
  "bytecode": "0x60c060405234801561001057600080fd5b50604051610c0f380380610c0f83398181016040528101906100329190610103565b3373ffffffffffffffffffffffffffffffffffffffff1660a08173ffffffffffffffffffffffffffffffffffffffff16815250508073ffffffffffffffffffffffffffffffffffffffff1660808173ffffffffffffffffffffffffffffffffffffffff168152505050610130565b600080fd5b600073ffffffffffffffffffffffffffffffffffffffff82169050919050565b60006100d0826100a5565b9050919050565b6100e0816100c5565b81146100eb57600080fd5b50565b6000815190506100fd816100d7565b92915050565b600060208284031215610119576101186100a0565b5b6000610127848285016100ee565b91505092915050565b60805160a051610ab461015b6000396000818160cf015261025c0152600061030d0152610ab46000f3fe60806040526004361061003f5760003560e01c80633ccfd60b146100445780636b69a5921461005b578063b60d428814610086578063dc0d3dff14610090575b600080fd5b34801561005057600080fd5b506100596100cd565b005b34801561006757600080fd5b506100706102f1565b60405161007d9190610603565b60405180910390f35b61008e6102fe565b005b34801561009c57600080fd5b506100b760048036038101906100b2919061064f565b610437565b6040516100c491906106bd565b60405180910390f35b7f000000000000000000000000000000000000000000000000000000000000000073ffffffffffffffffffffffffffffffffffffffff163373ffffffffffffffffffffffffffffffffffffffff1614610152576040517f579610db00000000000000000000000000000000000000000000000000000000815260040160405180910390fd5b60005b6000805490508110156101f7576000808281548110610177576101766106d8565b5b9060005260206000200160009054906101000a900473ffffffffffffffffffffffffffffffffffffffff1690506000600260008373ffffffffffffffffffffffffffffffffffffffff1673ffffffffffffffffffffffffffffffffffffffff16815260200190815260200160002081905550508080600101915050610155565b50600067ffffffffffffffff81111561021357610212610707565b5b6040519080825280602002602001820160405280156102415781602001602082028036833780820191505090505b5060009080519060200190610257929190610543565b5060007f000000000000000000000000000000000000000000000000000000000000000073ffffffffffffffffffffffffffffffffffffffff164760405161029e90610767565b60006040518083038185875af1925050503d80600081146102db576040519150601f19603f3d011682016040523d82523d6000602084013e6102e0565b606091505b50509050806102ee57600080fd5b50565b6802b5e3af16b188000081565b6802b5e3af16b188000061033b7f00000000000000000000000000000000000000000000000000000000000000003461047690919063ffffffff16565b101561037c576040517f08c379a0000000000000000000000000000000000000000000000000000000008152600401610373906107d9565b60405180910390fd5b34600260003373ffffffffffffffffffffffffffffffffffffffff1673ffffffffffffffffffffffffffffffffffffffff16815260200190815260200160002060008282546103cb9190610828565b925050819055506000339080600181540180825580915050600190039060005260206000200160009091909190916101000a81548173ffffffffffffffffffffffffffffffffffffffff021916908373ffffffffffffffffffffffffffffffffffffffff160217905550565b6001818154811061044757600080fd5b906000526020600020016000915054906101000a900473ffffffffffffffffffffffffffffffffffffffff1681565b600080610482836104b2565b90506000670de0b6b3a7640000858361049b919061085c565b6104a591906108cd565b9050809250505092915050565b6000808273ffffffffffffffffffffffffffffffffffffffff1663feaf968c6040518163ffffffff1660e01b815260040160a060405180830381865afa158015610500573d6000803e3d6000fd5b505050506040513d601f19601f82011682018060405250810190610524919061098b565b5050509150506402540be4008161053b9190610a06565b915050919050565b8280548282559060005260206000209081019282156105bc579160200282015b828111156105bb5782518260006101000a81548173ffffffffffffffffffffffffffffffffffffffff021916908373ffffffffffffffffffffffffffffffffffffffff16021790555091602001919060010190610563565b5b5090506105c991906105cd565b5090565b5b808211156105e65760008160009055506001016105ce565b5090565b6000819050919050565b6105fd816105ea565b82525050565b600060208201905061061860008301846105f4565b92915050565b600080fd5b61062c816105ea565b811461063757600080fd5b50565b60008135905061064981610623565b92915050565b6000602082840312156106655761066461061e565b5b60006106738482850161063a565b91505092915050565b600073ffffffffffffffffffffffffffffffffffffffff82169050919050565b60006106a78261067c565b9050919050565b6106b78161069c565b82525050565b60006020820190506106d260008301846106ae565b92915050565b7f4e487b7100000000000000000000000000000000000000000000000000000000600052603260045260246000fd5b7f4e487b7100000000000000000000000000000000000000000000000000000000600052604160045260246000fd5b600081905092915050565b50565b6000610751600083610736565b915061075c82610741565b600082019050919050565b600061077282610744565b9150819050919050565b600082825260208201905092915050565b7f596f75206e65656420746f207370656e64206d6f726520455448210000000000600082015250565b60006107c3601b8361077c565b91506107ce8261078d565b602082019050919050565b600060208201905081810360008301526107f2816107b6565b9050919050565b7f4e487b7100000000000000000000000000000000000000000000000000000000600052601160045260246000fd5b6000610833826105ea565b915061083e836105ea565b9250828201905080821115610856576108556107f9565b5b92915050565b6000610867826105ea565b9150610872836105ea565b9250828202610880816105ea565b91508282048414831517610897576108966107f9565b5b5092915050565b7f4e487b7100000000000000000000000000000000000000000000000000000000600052601260045260246000fd5b60006108d8826105ea565b91506108e3836105ea565b9250826108f3576108f261089e565b5b828204905092915050565b600069ffffffffffffffffffff82169050919050565b61091d816108fe565b811461092857600080fd5b50565b60008151905061093a81610914565b92915050565b6000819050919050565b61095381610940565b811461095e57600080fd5b50565b6000815190506109708161094a565b92915050565b60008151905061098581610623565b92915050565b600080600080600060a086880312156109a7576109a661061e565b5b60006109b58882890161092b565b95505060206109c688828901610961565b94505060406109d788828901610976565b93505060606109e888828901610976565b92505060806109f98882890161092b565b9150509295509295909350565b6000610a1182610940565b9150610a1c83610940565b9250828202610a2a81610940565b91507f80000000000000000000000000000000000000000000000000000000000000008414600084121615610a6257610a616107f9565b5b8282058414831517610a7757610a766107f9565b5b509291505056fea2646970667358221220a4a0722ad130713db7b9b28ecacaf31bdb454643b3546e31cefed4c1ac346ccd64736f6c63430008180033",
  "linkReferences": {},
  "deployedLinkReferences": {}
}